{
  "contractName": "EventManager",
  "abi": [
    {
      "inputs": [],
      "stateMutability": "nonpayable",
      "type": "constructor"
    },
    {
      "anonymous": false,
      "inputs": [
        {
          "indexed": false,
          "internalType": "uint256",
          "name": "eventId",
          "type": "uint256"
        },
        {
          "indexed": false,
          "internalType": "string",
          "name": "title",
          "type": "string"
        },
        {
          "indexed": false,
          "internalType": "string",
          "name": "description",
          "type": "string"
        },
        {
          "indexed": false,
          "internalType": "uint256",
          "name": "date",
          "type": "uint256"
        }
      ],
      "name": "EventCreated",
      "type": "event"
    },
    {
      "anonymous": false,
      "inputs": [
        {
          "indexed": false,
          "internalType": "uint256",
          "name": "eventId",
          "type": "uint256"
        },
        {
          "indexed": false,
          "internalType": "address",
          "name": "attendee",
          "type": "address"
        }
      ],
      "name": "RSVPed",
      "type": "event"
    },
    {
      "inputs": [],
      "name": "eventCount",
      "outputs": [
        {
          "internalType": "uint256",
          "name": "",
          "type": "uint256"
        }
      ],
      "stateMutability": "view",
      "type": "function",
      "constant": true
    },
    {
      "inputs": [
        {
          "internalType": "uint256",
          "name": "",
          "type": "uint256"
        }
      ],
      "name": "events",
      "outputs": [
        {
          "internalType": "string",
          "name": "title",
          "type": "string"
        },
        {
          "internalType": "string",
          "name": "description",
          "type": "string"
        },
        {
          "internalType": "uint256",
          "name": "date",
          "type": "uint256"
        }
      ],
      "stateMutability": "view",
      "type": "function",
      "constant": true
    },
    {
      "inputs": [
        {
          "internalType": "string",
          "name": "title",
          "type": "string"
        },
        {
          "internalType": "string",
          "name": "description",
          "type": "string"
        },
        {
          "internalType": "uint256",
          "name": "date",
          "type": "uint256"
        }
      ],
      "name": "createEvent",
      "outputs": [],
      "stateMutability": "nonpayable",
      "type": "function"
    },
    {
      "inputs": [
        {
          "internalType": "uint256",
          "name": "eventId",
          "type": "uint256"
        }
      ],
      "name": "RSVP",
      "outputs": [],
      "stateMutability": "nonpayable",
      "type": "function"
    },
    {
      "inputs": [
        {
          "internalType": "uint256",
          "name": "eventId",
          "type": "uint256"
        }
      ],
      "name": "getAttendees",
      "outputs": [
        {
          "internalType": "address[]",
          "name": "",
          "type": "address[]"
        }
      ],
      "stateMutability": "view",
      "type": "function",
      "constant": true
    },
    {
      "inputs": [
        {
          "internalType": "uint256",
          "name": "eventId",
          "type": "uint256"
        }
      ],
      "name": "getEvent",
      "outputs": [
        {
          "internalType": "string",
          "name": "",
          "type": "string"
        },
        {
          "internalType": "string",
          "name": "",
          "type": "string"
        },
        {
          "internalType": "uint256",
          "name": "",
          "type": "uint256"
        }
      ],
      "stateMutability": "view",
      "type": "function",
      "constant": true
    }
  ],
  "bytecode": "0x608060405234801561001057600080fd5b506000600181905550610eb5806100286000396000f3fe608060405234801561001057600080fd5b50600436106100625760003560e01c80630b7914301461006757806355115f29146100995780635555fe17146100b55780636d1884e0146100d157806371be2e4a14610103578063e0c1437714610121575b600080fd5b610081600480360381019061007c91906108f8565b610151565b60405161009093929190610adf565b60405180910390f35b6100b360048036038101906100ae91906108f8565b61028b565b005b6100cf60048036038101906100ca9190610879565b610471565b005b6100eb60048036038101906100e691906108f8565b610563565b6040516100fa93929190610adf565b60405180910390f35b61010b6106b0565b6040516101189190610b84565b60405180910390f35b61013b600480360381019061013691906108f8565b6106b6565b6040516101489190610abd565b60405180910390f35b600060205280600052604060002060009150905080600001805461017490610d4f565b80601f01602080910402602001604051908101604052809291908181526020018280546101a090610d4f565b80156101ed5780601f106101c2576101008083540402835291602001916101ed565b820191906000526020600020905b8154815290600101906020018083116101d057829003601f168201915b50505050509080600101805461020290610d4f565b80601f016020809104026020016040519081016040528092919081815260200182805461022e90610d4f565b801561027b5780601f106102505761010080835404028352916020019161027b565b820191906000526020600020905b81548152906001019060200180831161025e57829003601f168201915b5050505050908060020154905083565b6001548111156102d0576040517f08c379a00000000000000000000000000000000000000000000000000000000081526004016102c790610b64565b60405180910390fd5b600080600083815260200190815260200160002090508060040160003373ffffffffffffffffffffffffffffffffffffffff1673ffffffffffffffffffffffffffffffffffffffff16815260200190815260200160002060009054906101000a900460ff1615610375576040517f08c379a000000000000000000000000000000000000000000000000000000000815260040161036c90610b24565b60405180910390fd5b60018160040160003373ffffffffffffffffffffffffffffffffffffffff1673ffffffffffffffffffffffffffffffffffffffff16815260200190815260200160002060006101000a81548160ff02191690831515021790555080600301339080600181540180825580915050600190039060005260206000200160009091909190916101000a81548173ffffffffffffffffffffffffffffffffffffffff021916908373ffffffffffffffffffffffffffffffffffffffff1602179055507fc835468a8a411bed692eabf21e190ba52852397506f94e9726d4f0a88b97ca638233604051610465929190610b9f565b60405180910390a15050565b4281116104b3576040517f08c379a00000000000000000000000000000000000000000000000000000000081526004016104aa90610b44565b60405180910390fd5b600160008154809291906104c690610d81565b9190505550600080600060015481526020019081526020016000209050838160000190805190602001906104fb929190610759565b5082816001019080519060200190610514929190610759565b508181600201819055507fc3c73c6e241661d903c3cd6d17266ff5d3b495e57afa5898c2c429e4b7d474706001548585856040516105559493929190610bc8565b60405180910390a150505050565b60608060008060008086815260200190815260200160002090508060000181600101826002015482805461059690610d4f565b80601f01602080910402602001604051908101604052809291908181526020018280546105c290610d4f565b801561060f5780601f106105e45761010080835404028352916020019161060f565b820191906000526020600020905b8154815290600101906020018083116105f257829003601f168201915b5050505050925081805461062290610d4f565b80601f016020809104026020016040519081016040528092919081815260200182805461064e90610d4f565b801561069b5780601f106106705761010080835404028352916020019161069b565b820191906000526020600020905b81548152906001019060200180831161067e57829003601f168201915b50505050509150935093509350509193909250565b60015481565b606060008083815260200190815260200160002060030180548060200260200160405190810160405280929190818152602001828054801561074d57602002820191906000526020600020905b8160009054906101000a900473ffffffffffffffffffffffffffffffffffffffff1673ffffffffffffffffffffffffffffffffffffffff1681526020019060010190808311610703575b50505050509050919050565b82805461076590610d4f565b90600052602060002090601f01602090048101928261078757600085556107ce565b82601f106107a057805160ff19168380011785556107ce565b828001600101855582156107ce579182015b828111156107cd5782518255916020019190600101906107b2565b5b5090506107db91906107df565b5090565b5b808211156107f85760008160009055506001016107e0565b5090565b600061080f61080a84610c4c565b610c1b565b90508281526020810184848401111561082757600080fd5b610832848285610d0d565b509392505050565b600082601f83011261084b57600080fd5b813561085b8482602086016107fc565b91505092915050565b60008135905061087381610e68565b92915050565b60008060006060848603121561088e57600080fd5b600084013567ffffffffffffffff8111156108a857600080fd5b6108b48682870161083a565b935050602084013567ffffffffffffffff8111156108d157600080fd5b6108dd8682870161083a565b92505060406108ee86828701610864565b9150509250925092565b60006020828403121561090a57600080fd5b600061091884828501610864565b91505092915050565b600061092d8383610939565b60208301905092915050565b61094281610cd1565b82525050565b61095181610cd1565b82525050565b600061096282610c8c565b61096c8185610caf565b935061097783610c7c565b8060005b838110156109a857815161098f8882610921565b975061099a83610ca2565b92505060018101905061097b565b5085935050505092915050565b60006109c082610c97565b6109ca8185610cc0565b93506109da818560208601610d1c565b6109e381610e57565b840191505092915050565b60006109fb600f83610cc0565b91507f416c7265616479205253565065642e00000000000000000000000000000000006000830152602082019050919050565b6000610a3b602083610cc0565b91507f4576656e742064617465206d75737420626520696e20746865206675747572656000830152602082019050919050565b6000610a7b601583610cc0565b91507f4576656e7420646f6573206e6f742065786973742e00000000000000000000006000830152602082019050919050565b610ab781610d03565b82525050565b60006020820190508181036000830152610ad78184610957565b905092915050565b60006060820190508181036000830152610af981866109b5565b90508181036020830152610b0d81856109b5565b9050610b1c6040830184610aae565b949350505050565b60006020820190508181036000830152610b3d816109ee565b9050919050565b60006020820190508181036000830152610b5d81610a2e565b9050919050565b60006020820190508181036000830152610b7d81610a6e565b9050919050565b6000602082019050610b996000830184610aae565b92915050565b6000604082019050610bb46000830185610aae565b610bc16020830184610948565b9392505050565b6000608082019050610bdd6000830187610aae565b8181036020830152610bef81866109b5565b90508181036040830152610c0381856109b5565b9050610c126060830184610aae565b95945050505050565b6000604051905081810181811067ffffffffffffffff82111715610c4257610c41610e28565b5b8060405250919050565b600067ffffffffffffffff821115610c6757610c66610e28565b5b601f19601f8301169050602081019050919050565b6000819050602082019050919050565b600081519050919050565b600081519050919050565b6000602082019050919050565b600082825260208201905092915050565b600082825260208201905092915050565b6000610cdc82610ce3565b9050919050565b600073ffffffffffffffffffffffffffffffffffffffff82169050919050565b6000819050919050565b82818337600083830152505050565b60005b83811015610d3a578082015181840152602081019050610d1f565b83811115610d49576000848401525b50505050565b60006002820490506001821680610d6757607f821691505b60208210811415610d7b57610d7a610df9565b5b50919050565b6000610d8c82610d03565b91507fffffffffffffffffffffffffffffffffffffffffffffffffffffffffffffffff821415610dbf57610dbe610dca565b5b600182019050919050565b7f4e487b7100000000000000000000000000000000000000000000000000000000600052601160045260246000fd5b7f4e487b7100000000000000000000000000000000000000000000000000000000600052602260045260246000fd5b7f4e487b7100000000000000000000000000000000000000000000000000000000600052604160045260246000fd5b6000601f19601f8301169050919050565b610e7181610d03565b8114610e7c57600080fd5b5056fea2646970667358221220ec64e1baff440f6b51fc7661dffed9b39775d272b504de117ca7685088525b4e64736f6c63430008000033",
  "immutableReferences": {},
  "source": "// SPDX-License-Identifier: MIT\r\npragma solidity ^0.8.0;\r\n\r\ncontract EventManager {\r\n    struct Event {\r\n        string title;\r\n        string description;\r\n        uint256 date;\r\n        address[] attendees;\r\n        mapping(address => bool) RSVPed;\r\n    }\r\n\r\n    mapping(uint256 => Event) public events;\r\n    uint256 public eventCount;\r\n\r\n    event EventCreated(uint256 eventId, string title, string description, uint256 date);\r\n    event RSVPed(uint256 eventId, address attendee);\r\n\r\n    constructor() {\r\n        eventCount = 0;\r\n    }\r\n\r\n    function createEvent(string memory title, string memory description, uint256 date) public {\r\n        require(date > block.timestamp, \"Event date must be in the future\");\r\n        eventCount++;\r\n        Event storage newEvent = events[eventCount];\r\n        newEvent.title = title;\r\n        newEvent.description = description;\r\n        newEvent.date = date;\r\n        emit EventCreated(eventCount, title, description, date);\r\n    }\r\n\r\n    function RSVP(uint256 eventId) public {\r\n        require(eventId <= eventCount, \"Event does not exist.\");\r\n        Event storage eventInstance = events[eventId];\r\n        require(!eventInstance.RSVPed[msg.sender], \"Already RSVPed.\");\r\n        \r\n        eventInstance.RSVPed[msg.sender] = true;\r\n        eventInstance.attendees.push(msg.sender);\r\n        emit RSVPed(eventId, msg.sender);\r\n    }\r\n\r\n    function getAttendees(uint256 eventId) public view returns (address[] memory) {\r\n        return events[eventId].attendees;\r\n    }\r\n\r\n    // New function to get an event by its ID\r\n    function getEvent(uint256 eventId) public view returns (string memory, string memory, uint256) {\r\n        Event storage e = events[eventId];\r\n        return (e.title, e.description, e.date);\r\n    }\r\n}",
  "sourcePath": "C:\\Users\\modia\\DecentralizedEventPlanner\\contracts\\EventManager.sol",
  "compiler": {
    "name": "solc",
    "version": "0.8.0+commit.c7dfd78e.Emscripten.clang"
  },
  "schemaVersion": "3.4.16",
  "updatedAt": "2024-11-22T19:37:38.262Z",
  "networkType": "ethereum",
  "devdoc": {
    "kind": "dev",
    "methods": {},
    "version": 1
  },
  "userdoc": {
    "kind": "user",
    "methods": {},
    "version": 1
  }
}